:1020000000800020419800002998000029980000D5
:1020100000000000000000000000000000000000C0
:1020200000000000000000000000000029980000EF
:1020300000000000000000002998000095980000B2
:10204000299800002998000029980000299800008C
:102050002998000029980000299800002D98000078
:102060002998000011840000299800002998000098
:102070002998000029980000218400002998000078
:10208000299800002998000029980000299800004C
:1020900079A70000299800002998000029980000DD
:1020A000299800002998000029980000299800002C
:1020B0000000000010B5064C2378002B07D1054B1B
:1020C000002B02D0044800E000BF0123237010BDA4
:1020D000E001002000000000FC47010008B5084BAB
:1020E000002B03D00748084900E000BF07480368F9
:1020F000002B03D0064B002B00D0984708BDC046EC
:1021000000000000FC470100E4010020D001002095
:102110000000000010B5041CE43008F042FC201C54
:10212000D83008F03EFC201CCC3008F03AFC201CD3
:10213000C03008F036FC201CB43008F032FC201C03
:10214000A83008F02EFC201C9C3008F02AFC201C33
:10215000903008F026FC201C843008F022FC201C63
:10216000783008F01EFC201C6C3008F01AFC201C93
:10217000603008F016FC201C543008F012FC201CC3
:10218000483008F00EFC201C3C3008F00AFC201CF3
:10219000303008F006FC201C243008F002FC201C23
:1021A00010BD70B5061CE836041C002E09D0A4230F
:1021B0005B00C518B54204D00C3D281C08F0F1FBAB
:1021C000F8E7261C0836002E08D0251C6835B542D5
:1021D00004D00C3D281C08F0E4FBF8E7201C70BD7F
:1021E00010B5041C683008F0DCFB201C5C3008F0E3
:1021F000D8FB201C10BD10B58B68041C08F040FDF6
:10220000201C10BD07B50023009301931A1C04F095
:10221000D5FD0EBDF8B53E4D0026041C0660466097
:10222000291C083008F004FC201C291C143008F07C
:10223000FFFB201C291C203008F0FAFB201C291C65
:102240002C3008F0F5FB201C291C383008F0F0FB7E
:10225000201C291C443008F0EBFB201C291C5030AA
:1022600008F0E6FB201C291C5C3008F0E1FB20276D
:10227000201C311C3A1C68300CF066FE201C311CFE
:102280003A1C88300CF060FE201C311C3A1CA8302F
:102290000CF05AFE201C3A1C311CC8300CF054FEC5
:1022A000201C291CE83008F0C3FB201C291CF4303A
:1022B00008F0BEFB601C291CFF3008F0B9FB862328
:1022C0005B00291CE01808F0B3FB8C235B00291C81
:1022D000E01808F0ADFB92235B00291CE01808F021
:1022E000A7FB98235B00291CE01808F0A1FB9E23A4
:1022F0005B00E018291C08F09BFB231CFC33002228
:10230000DE641E655A65AA235B00E654201CF8BDF6
:10231000913E010030B5041C251C85B0243505F024
:102320003DFA281C304908F083FB291C01A808F05D
:10233000A2FB01A82D4908F0FBFB011C201C30303A
:1023400008F099FB01A808F02CFB201C28493C3020
:1023500008F06EFB201C2749483008F069FB201C60
:102360002549543008F064FB201C2449603008F0F3
:102370005FFB201C22496C3008F05AFB201C2149CD
:10238000783008F055FB201C1F49843008F050FBC2
:10239000201C1E49903008F04BFB201C1C499C302F
:1023A00008F046FB201C1B49A83008F041FB201C0C
:1023B0001949B43008F03CFB201C1849C03008F023
:1023C00037FB201C1649CC3008F032FB201C154985
:1023D000D83008F02DFB201C1349E43008F028FB0E
:1023E000201C05B030BDC046840E01008C0E0100DB
:1023F000910E0100A00E0100B90E0100CF0E0100E8
:10240000E30E0100F80E01000C0F01001D0F01008A
:10241000390F0100550F01006E0F0100870F0100F9
:102420009F0F0100B70F0100CF0F0100F0B501258C
:1024300085B03B4C3B4E201C0221052D23DC03F0D4
:10244000A5F8201C802103F08BF8201C1C2103F030
:102450009BF80121201C03F069F8201C03F07CF894
:102460000390201C03F07AF8071C201C03F08AF864
:102470001C235B426B430D330190FF330097301CEC
:102480000399002241E003F081F8201C402103F071
:1024900067F8201C1C2103F077F80121201C03F0B1
:1024A00045F8201C03F058F80390201C03F056F860
:1024B000071C201C03F066F800226423009701909B
:1024C0000399301C02F026FF201C022103F05EF865
:1024D000201C402103F044F8201C1C2103F054F878
:1024E0000121201C03F022F8201C03F035F8039092
:1024F000201C03F033F8071C201C03F043F8039959
:1025000001900097301C40226423013502F002FF45
:10251000082D8ED1301C02F0A6FE05B0F0BDC046DD
:10252000880E00200415002038B50021051C11205C
:1025300007F012FC064C0021201C05F08BFEE9B2CE
:10254000201C05F087FE1120012107F005FC38BD95
:102550002C1800200000000008B5092007F030FB0F
:102560000AF03CFD011C09F0DBFE0CF06DFB074B93
:10257000054A0BF009FD0CF0B9FBEA2189050AF0C8
:1025800017FA08BDC046C0466666666666660A40BB
:1025900070B5DE4C88B0251CDD4912350026201CA4
:1025A00007F004FD2389291C0096201C402204F01A
:1025B000C9FA281CD7490CF089FDB04200D143E28A
:1025C000291C02A808F034FA02A8D34908F0F8FA46
:1025D000B04202D0D14B51331E7002A8D04908F04E
:1025E000EFFA041E04D0CD4B012250331A7008E0DC
:1025F00002A8CC4908F0E4FA002802D0C74B5033B7
:102600001C70C94905A808F013FA02A805A908F02A
:1026100002FB041C05A808F0C4F9002C20D002A974
:1026200005A80122FFF7E7FD05A808F0B1FBBF49A7
:10263000041C09F029FE002809D1FE21201C89056F
:1026400009F00EFE002803D0FE24A40500E0B74CDC
:10265000201C0AF047FCB64BD86005A808F0A1F989
:10266000B44905A808F0E4F902A805A908F0D3FACE
:10267000041C05A808F095F9002C18D002A905A89B
:102680000222FFF7B8FD05A808F082FBFE218905AC
:10269000041C09F0E5FD002801D0FE24A405201C3F
:1026A0000AF020FCA44B586505A808F07AF9A34964
:1026B00005A808F0BDF902A805A908F0ACFA041CA9
:1026C00005A808F06EF9002C0ED002A9022205A878
:1026D000FFF791FD05A808F05BFB0AF003FC964BA1
:1026E000986505A808F05DF9954905A808F0A0F9D6
:1026F00002A805A908F08FFA041C05A808F051F9F2
:10270000002C3CD002A9032205A8FFF774FD05A800
:1027100008F03EFB884D6867A86F0AF0E3FB041CD5
:102720006E6F201C0AF0FEFB311C09F0A3FD00288F
:1027300009D0211C1320002207F04EFF052007F0CE
:10274000BDF80A34ECE7301C0AF0CCFB041C201C5A
:102750000AF0E8FBA96F09F0A1FD002809D0211CAF
:102760001320002207F038FF052007F0A7F80A3CE5
:10277000EDE7132007F020FF05A808F012F97149D2
:1027800005A808F055F902A805A908F044FA041CA8
:1027900005A808F006F9002C3BD002A9032205A8E1
:1027A000FFF729FD05A808F0F3FA634DA8670AF0C2
:1027B00099FB041C6E6F201C0AF0B4FB311C09F05D
:1027C00059FD002809D0211C1320002207F004FF26
:1027D000052007F073F80A34ECE7301C0AF082FB9E
:1027E000041C201C0AF09EFBA96F09F057FD00286D
:1027F00009D0211C1320002207F0EEFE052007F06F
:102800005DF80A3CEDE7132007F0D6FE05A808F0B6
:10281000C8F84D4905A808F00BF902A805A908F069
:10282000FAF9041C05A808F0BCF8002C3ED002A957
:10283000032205A8FFF7DFFC05A808F0A9FA3E4D22
:102840002B1DE867D86F0AF04DFB041CEE6F201CAF
:102850000AF068FB311C09F00DFD002809D0211C8D
:102860001320002207F0B8FE052007F027F80A34ED
:10287000ECE7301C0AF036FB041C201C0AF052FB6B
:102880002B1DD96F09F00AFD002809D0211C132047
:10289000002207F0A1FE052007F010F80A3CECE743
:1028A000132007F089FE05A808F07BF8274905A842
:1028B00008F0BEF802A805A908F0ADF9041C05A8A7
:1028C00008F06FF8002C60D002A9032205A8FFF7DA
:1028D00092FC05A808F05CFA174D2B1DD8670AF08A
:1028E00001FB041CEE6F201C0AF01CFB311C09F0DC
:1028F000C1FC00282CD0211C1320002207F06CFE04
:10290000052006F0DBFF0A34ECE7C0462C1300205C
:10291000DD0F0100EA0F0100ED0F01000C0E002099
:10292000EF0F0100F10F0100F30F010000007A44E6
:102930003C050020F50F01009C0E0020F80F01005F
:10294000FB0F0100FF0F0100031001000710010041
:10295000301C0AF0C7FA041C201C0AF0E3FA2B1DF5
:10296000D96F09F09BFC002809D0211C13200022FC
:1029700007F032FE052006F0A1FF0A3CECE7132029
:1029800007F01AFE05A808F00CF802A82F4908F075
:1029900017F9002820D02E4B01221A702D4B9C6F66
:1029A0001D1C201C696F09F065FC002810D0201C3C
:1029B00009F07EFC0022011C132007F00DFE05200B
:1029C00006F07CFF201C244909F0AAFC041CE8E75F
:1029D000132007F0F1FD24E002A8204908F0F0F8E8
:1029E00000281ED01B4B5C6F1E1C201CB16F09F011
:1029F00055FC051E10D0201C09F05AFC0022011CB9
:102A0000132007F0E9FD052006F058FF201C1249AD
:102A10000AF0F8F8041CE8E7132007F0CDFD0C4B92
:102A20001D7002A80E4908F0CBF8002809D102A8B1
:102A30000C4908F0C5F8002803D0FA20800006F001
:102A40003DFF02A807F0ADFF08B070BD38110100CE
:102A50000C0E00209C0E0020000020410B100100F5
:102A6000F1110100FF3D010073B51E4C1E49201CF1
:102A700007F076FA1D4B022518680CF0E5F8009572
:102A8000021C0B1C201C07F0BFFB194E201C311C24
:102A900007F066FA174B18680CF0D6F800950B1C77
:102AA000021C201C07F0B0FB201C311C07F058FA58
:102AB000114B50331B78002B0AD0104B18680CF0C8
:102AC000C3F80095021C0B1C201C07F09DFB03E0C3
:102AD000201C0B4907F044FA201C0A4907F066FA4B
:102AE00073BDC0462C1300200D1001000002002011
:102AF000873E0100980E00200C0E002008140020D4
:102B00003A130100EF0F01001D4B37B518680CF0A8
:102B10009BF81A4B184A0BF037FA0BF0EFFF194CE1
:102B2000051C1949201C07F01BFA184B18680CF0FB
:102B30008BF80B1C0021021C0091201C07F06BFB82
:102B4000201C134907F00CFA291C0A22201C07F04C
:102B500080FA201C0F4907F003FA0F4B0A2219686C
:102B6000201C07F076FA201C0C4907F0F9F9201C0C
:102B70000B4907F01BFA37BD7B14AE47E17A3E40A4
:102B8000980E00202C1300201B100100201500209F
:102B900032100100481001002C0000205D100100DF
:102BA0006C100100C046C04638B5051E022D22D16A
:102BB0001E4C0121201C04F079F9002804D11C4886
:102BC0001C4907F0F3F9FEE71B49201CFFF71AFB2D
:102BD0001A49201CFFF716FB1949201CFFF712FBAE
:102BE0001849201CFFF70EFB1749201CFFF70AFBB2
:102BF000201C012113E0012817D10C4C291C201C9A
:102C000004F054F9002804D109480A4907F0CEF924
:102C1000FEE70E49201CFFF7F5FA201C291C04F0E2
:102C20000DF9201C0A49FFF7EDFA38BD2C130020DE
:102C3000501A00207910010093100100A01001002B
:102C4000F01001003A11010088110100AA110100E1
:102C50009E11010070B5574C5749201C05F05BFBD5
:102C6000564EE122201C311C520205F03DFB201C77
:102C7000012105F023FB00280AD05149606C07F0C0
:102C80006FF9201C0A2105F014FB201C05F02BFB1A
:102C90000122201C002105F09CFBE121301C49028F
:102CA00008F010F90920002106F0FCFF1120012195
:102CB00006F0F8FF0F20002106F0F4FF0E2001219E
:102CC00006F0F0FF0E20012107F046F83D4C231CD2
:102CD00058331B78002B07D11020012106F0E2FFAA
:102CE0001020012107F038F8231C51331B78002BEA
:102CF00008D000210122344804F028FA606DFFF763
:102D000053FF07E00820012106F0CCFF0820012135
:102D100007F022F80D212D4803F04EFC2C4D132115
:102D2000281C02F099F9E0690AF0DCF86865A06AED
:102D30000AF0D8F8636BA8656B67A36B04356B6703
:102D4000E36BAB67236CEB67231C48331B78002BCA
:102D500020D0204D2049281C02F031FA002804D050
:102D6000301C1E4907F0FCF822E0FF21281C02F06D
:102D700028FB281C02F077FAFF21281C02F021FB17
:102D8000281C02F070FA281C154902F018FA0028D5
:102D900008D0E5E70620012106F084FF0620012186
:102DA00006F0DAFF636802339B00E058FFF7BCFBD4
:102DB00070BDC0463C180020B80B0000501A00201F
:102DC000CD1101000C0E00202C130020A40B0020BC
:102DD0009C0E00200415002003140100DF110100E7
:102DE000E5130100F0B5C1178BB005AC45184D4097
:102DF000142203900021201C0CF0A6F8281C6A491C
:102E000009F07CF9FA21061C20618900281C09F0D0
:102E100075F90A235B427343C718E760281C6421D5
:102E200009F06CF964235B427343C0180A235B42C8
:102E30007B43C318A360281C0A21029309F05EF9A2
:102E40005A4B02991A1C72438018642252427A43E8
:102E500080180A2252424A438018554A5F4356431B
:102E6000642252424A43AD19EB199B180A2252427E
:102E700060605043181805900023E2583032E25049
:102E80000433142BF9D103996368002922DA302B1B
:102E90000BD1A268302A08D1E368302B05D1216913
:102EA000302902D12D2363602BE0A268302A08D19B
:102EB000E368302B05D12169302902D12D23A3608D
:102EC00028E0E2682D23302A2BD12169302928D12E
:102ED000E36025E0302B0BD1A268302A08D1E368EB
:102EE000302B05D12169302902D12023636009E00C
:102EF000A268302A08D1E368302B05D12169302936
:102F000002D12023A36006E0E268302A05D12369BC
:102F1000302B02D12023E36003E02169302901D165
:102F200020232361234D0221281C02F02FFB281CA3
:102F3000802102F015FB281C1C2102F025FB281C17
:102F4000012102F0F3FA1B230093012100230193D6
:102F5000281C0A1C582302F015FC042611214942A2
:102F60007143154AB3000027E35C46310092019794
:102F7000281C042202F04CFB013EEFD2281C02F078
:102F8000EBFA041C281C02F0E9FA061C281C02F0CB
:102F9000F9FA00960190211C08483A1C5C2302F0C3
:102FA000B9F90BB0F0BDC0461027000018FCFFFFB8
:102FB000F0D8FFFF880E0020380000200415002004
:102FC000F7B5304C061C0221201C02F0DFFA201C51
:102FD000402102F0C5FA201C7821002502F0D4FA25
:102FE000201C012102F0A2FA3C224023291C00955A
:102FF000201C02F0A3FB301C234909F0D9FC061C5D
:10300000311C224809F0FEFD09F06CFF3B23021C35
:10301000291C009301954023201C02F04CFB311C1D
:103020001B4809F0EFFD09F05DFF3C23021C291C41
:10303000009301954023201C02F03DFB311C1548F4
:1030400009F0E0FD09F04EFF3D23291C021C00930E
:1030500001954023201C02F02EFB201C02F07CFA7C
:10306000061C201C02F07AFA071C201C02F08AFAC7
:1030700000970190311C2A1C0748782302F04AF976
:10308000F7BDC046880E00200000A04000006C4242
:10309000000070420000744204150020F0B589B0B1
:1030A0000D1C039006F004FC994BFA211B68890063
:1030B000C01A08F0D5FF974B974F05AE186009224C
:1030C000041C391C301C0BF036FF201C934908F0FF
:1030D000C7FF3030C0B29621307070708900201C5C
:1030E00008F0BEFF3030F0703C21201C08F0B8FF23
:1030F0000A2108F0F9FF30313171201C3C2108F021
:10310000F3FF0C1C081C0A2108F0AAFF3030B07134
:103110000A21201C08F0E8FF814C3031F171201C9D
:10312000022102F033FA201C802102F019FA201C3F
:10313000122102F029FA201C012102F0F7F9794B43
:103140000121009300230193201C331C0A1C02F070
:103150009BFA754B1B68DA0718D5744F02263B782B
:10316000002B13D000220292029A7B689A420ADC5A
:10317000029900236E31201C321C02F009FA029BD6
:1031800001330293F0E701360D2EEBD10026311CFE
:10319000112280230096201C02F0D0FA201C02F09D
:1031A000DBF90290201C02F0D9F9071C201C02F068
:1031B000E9F98B23321C019002995D485B0000976E
:1031C00002F0A8F8544904AE0931301C03220BF078
:1031D000B2FE281C574909F04DF8002822D02D23B3
:1031E00055493370281C09F0FFF90021071C09F02C
:1031F0004BF8002804D0381C504909F091F803E03E
:103200004E48391C09F0FEFC09F052F8C0B270704B
:10321000281C09F067FE0A2108F0C6FFCB17C91861
:1032200059402FE0281C002109F01AF800280AD084
:10323000202333702D237370281C09F053FEC2170E
:10324000801850400BE0281C3B4909F009F8202366
:103250003370002806D07370281C09F043FE30300C
:10326000B07011E03449281C09F0BEF9334909F067
:1032700057F809F01DF87070281C09F033FE0A2178
:1032800008F092FF3031B170201C022102F07EF96B
:10329000201C802102F064F9201C1C2102F074F92A
:1032A000201C012102F042F9002601211B2300937A
:1032B000201C0A1C0196332302F064FA204B0121E2
:1032C00004220093201C04AB019602F0DDF9201CBF
:1032D00002F042F90290201C02F040F9071C201C69
:1032E00002F050F9124C0299321C402301900097D1
:1032F000201C02F00FF8039809F0F4FDFFF772FDAF
:10330000281CFFF75DFE201C01F0ADFF09B0F0BDE9
:10331000840E0020AC0C0020640E0100A08C000084
:10332000880E002030000020001400200C0E002029
:1033300004150020000020C1000020410000404290
:103340003800002000000000F0B59FB006F0B0FA91
:10335000C14B18601F1CC14B1A1CFC32D46C1D1CC5
:10336000002C00D0EDE006F0A3FABD4ABD4B156875
:103370001968461BBC4D013138601960AE4207D94F
:103380001060BA4ABA4811600A221C6006F061FE59
:10339000B84B50331B78002B21D0B74B3A681968D3
:1033A000501AB64988421AD91A60FFF7D5F8B44BBB
:1033B00018600BF049FCA54BA34A0AF0E5FDA44AAE
:1033C000A44B0BF071F80BF099FBAE4B6322632812
:1033D00004DC002801DB186001E000221A60AA4C1E
:1033E0000221201C03F058FAA84D05212860201C5A
:1033F00003F096FAA64DA74E28609C4D06902868CB
:103400000790F06809F08EFD0699031C079A301C9E
:1034100002F0CEFA9D4B9E49021C08601968201CE0
:1034200003F0AEFA9C4E9D490690306028680790E4
:10343000C86809F077FD0699031C079A974802F0BF
:10344000D7F93A68011C01233060201C03F0F0FA20
:10345000934C06902060934C2D68E06809F062FD63
:103460002A1C031C0699201C02F032FA814C8C4D58
:1034700023782860021C251C002B16D03B688A4844
:10348000834212D9616C012903D18848316801F067
:10349000ABFB626C022A08D1814B84481B683168FF
:1034A00005931A1C3B6801F053FC2B1C51331B780D
:1034B000002B0BD0636D012B04D1FFF769F8FFF7E8
:1034C000D3FA03E0022B01D1FFF71EFB784B1A68F9
:1034D00001321A602B1C48331B78002B06D00C20BD
:1034E00006F06AFC002801D101F030FA3A686E4813
:1034F000704E824204D9301C0F2101F0B1FD3062C0
:10350000316A726991420CD13369012233622378A6
:103510005340237005D0C82191401320FA2207F0B0
:103520005BF8346AB069844200D014E731694835E9
:1035300031622B78012253405F482B7001F021FE4D
:1035400009E72B1CFC33DB6C142B04D10E2000216B
:1035500006F002FCF5E7594909A807F069FA58494D
:103560000CA807F065FA12AC56490FA807F060FAEC
:10357000201C554907F05CFA18AE544915A807F00D
:1035800057FA1BAF5249301C07F052FA5149381C08
:1035900007F04EFA15AA09A90FAB00940192281C56
:1035A0000CAA0296039702F073FA381C07F0F9F997
:1035B000301C07F0F6F915A807F0F3F9201C07F006
:1035C000F0F90FA807F0EDF90CA807F0EAF909A83F
:1035D00007F0E7F907231A1C009301930293039362
:1035E000281C002102F07AFA0D2300930F230021FA
:1035F0000193142302910393281C02220C2302F04E
:103600007BFAA824A623AA205B0040006400E918E6
:103610002A192B18281C02F0A7FA104E331CFC3371
:10362000DB6C012B58D1A622A823AA2452005B00F0
:103630006400B118301CF218331902F0BDFBFEF71C
:10364000F5FEEAE7C046C04600000000008863407F
:1036500000000000006281400C140020B00C00202B
:10366000A80C002004140020E7030000FC01002047
:10367000501A00200C0E00202800002087130000A4
:10368000081400202C000020A40B00203805002086
:103690002015002070080020000200203C050020BA
:1036A000980E002004020020701700009C0E0020DD
:1036B000001400200400002004150020F311010074
:1036C000FC110100021201000A1201001312010094
:1036D0001912010076130100BF4909A807F0A8F9E3
:1036E000BE490CA807F0A4F912ACBD490FA807F019
:1036F0009FF915AD201CBB4907F09AF9281CBA495F
:1037000007F096F91BAFB94918A807F091F9B84925
:10371000381C07F08DF918A809A90CAA0FAB009462
:10372000019502900397301C02F0B2F9381C07F0A3
:1037300038F918A807F035F9281C07F032F9201CD1
:1037400007F02FF90FA807F02CF90CA8072407F0B1
:1037500028F9002509A807F024F9221C231C00944D
:1037600002940394301C291C019502F0B7F901233F
:1037700000940293301C291C032204230195039515
:1037800002F0BAF9AA24A622A82352005B00640022
:10379000B118301CF218331902F0E6F9954C231CCD
:1037A000FC33DB6C022B0ED1A6256D006119A8201D
:1037B000AA2540006D0022186319201C02F0FCFAB3
:1037C000FEF734FEEAE78C4909A807F031F98B4986
:1037D0000CA807F02DF912AE89490FA807F028F9B7
:1037E000301C884918AF07F023F97F4915A81BAD95
:1037F00007F01EF97D49381C07F01AF9281C7C498E
:1038000007F016F915A809A90CAA0FAB00960190AC
:103810000395201C029702F03BF9281C07F0C1F821
:10382000381C07F0BEF815A807F0BBF8301C07F0ED
:10383000B8F80FA807F0B5F80CA807F0B2F809A877
:1038400007F0AFF806230026032200930723029314
:103850000393201C131C0121019602F03FF902235F
:103860000293201C331C311C321C009601960396D7
:1038700002F042F90422201C311C02F053F9624983
:10388000381C07F0D5F8281C604907F0D1F82A1C2D
:10389000391C201C02F05BF9281C07F082F8381C48
:1038A00007F07FF85A4DA8235B00E218291D201C61
:1038B0002B1C02F059F94F4C231CFC33DB6C032BFF
:1038C00013D1A82040002218291D201C2B1C02F017
:1038D00073FAFEF7ABFD6868FEF726FEC8211320D9
:1038E0004900642206F078FEE5E74A4909A807F096
:1038F0009FF849490CA807F09BF848490FA807F022
:1039000097F8394E15AD311C12A807F091F8311C0B
:10391000281C18AE07F08CF81BAF3449301C07F098
:1039200087F83349381C07F083F812A90CAA0FABAB
:103930000091019509A9201C0296039702F0A8F8AE
:10394000381C07F02EF8301C07F02BF8281C07F065
:1039500028F812A807F025F80FA807F022F80CA8FD
:1039600007F01FF809A807F01CF800250723291CF9
:103970001A1C0095019502930393201C02F0AEF8E7
:103980000223291C0095019502930395201C052212
:10399000062302F0B1F8AA25A622A82352005B0054
:1039A0006D00A118201CE218631902F0DDF8114C1B
:1039B000231CFC33DB6C042B32D1A620A823AA25C0
:1039C00040005B006D002118E218201C631902F012
:1039D000F3F9FEF72BFDEAE7FD1101001D120100CE
:1039E000261201002E120100503C01003512010088
:1039F00038120100B00C00203B1201007F120100C0
:103A00008312010086120100D4120100D9120100B4
:103A10000C0E0020E1120100EB120100F312010074
:103A2000F54909A807F004F8F4490CA807F000F8D4
:103A3000F3490FA806F0FCFFF24E15AD311C12A899
:103A400006F0F6FF311C281C18AE06F0F1FF1BAF84
:103A5000301CED4906F0ECFFEC49381C06F0E8FF9D
:103A600012A809A90CAA0FAB009001950296201C80
:103A7000039702F00DF8381C06F093FF301C06F097
:103A800090FF281C06F08DFF12A806F08AFF0FA8F1
:103A900006F087FF0CA806F084FF09A806F081FF56
:103AA0000025072305220095019502930393201C0E
:103AB000131C022102F012F80423291C2A1C009571
:103AC0000195029303952B1C201C02F015F8D04D94
:103AD000201C696A2A6A02F02BF8A6225200AA204A
:103AE000A11840002A1C23181C32201C02F03CF8AC
:103AF000C24EC84C231CFC33DB6C052B0DD1A62217
:103B00005200AA20A11840002A1C23181C32201C95
:103B100002F052F9FEF78AFCEBE7BF4909A806F06C
:103B200087FF311C0CA806F083FFB5490FA806F0EB
:103B30007FFFB44E15AD311C12A806F079FF311C81
:103B4000281C18AE06F074FF1BAFAF49301C06F0FE
:103B50006FFFAE49381C06F06BFF12A90CAA0FAB21
:103B60000091019509A9201C0296039701F090FF8E
:103B7000381C06F016FF301C06F013FF281C06F058
:103B800010FF12A806F00DFF0FA806F00AFF0CA800
:103B900006F007FF09A806F004FF00250723052209
:103BA0000095019502930393201C131C022101F040
:103BB00095FF0423291C2A1C009501950293039567
:103BC0002B1C201C01F098FF914D201C296BEA6AE8
:103BD00001F0AEFFA6225200AA204000A1182A1C24
:103BE00023182832201C01F0BFFF8A4C231CFC3311
:103BF000DB6C062B0DD1A6225200AA20A118400092
:103C00002A1C23182832201C02F0D6F8FEF70EFCDE
:103C1000EBE7824909A806F00BFF81490CA806F0E2
:103C200007FF80490FA806F003FF15AD7E4912A8D3
:103C300006F0FEFE18AE281C7C4906F0F9FE1BAF0C
:103C40007149301C06F0F4FE7049381C06F0F0FE95
:103C500012A90CAA0FAB0091019509A9201C02968C
:103C6000039701F015FF381C06F09BFE301C06F090
:103C700098FE281C06F095FE12A806F092FE0FA8EA
:103C800006F08FFE0CA806F08CFE09A806F089FE4F
:103C900007231A1C0093019302930393201C002115
:103CA00001F01CFF0A2300930B2300210193022340
:103CB00002930391201C0822092301F01DFFAA256D
:103CC000A622A82352005B006D00A118201CE21858
:103CD000631901F049FF4F4D2B1CFC33DB6C072BA4
:103CE0000ED1A620A823AA2440005B006400291856
:103CF000EA18281C2B1902F05FF8FEF797FBEAE799
:103D00004B4909A806F094FE4A490CA806F090FE1B
:103D100012AC49490FA806F08BFE201C474906F05B
:103D200087FE18AE464915A806F082FE1BAF301C70
:103D3000354906F07DFE3549381C06F079FE15A898
:103D400009A90CAA0FAB009401900296281C0397B6
:103D500001F09EFE381C06F024FE301C06F021FE09
:103D600015A806F01EFE201C06F01BFE0FA806F08C
:103D700018FE0CA806F015FE09A806F012FE07248E
:103D80000523281C1A1C009301930294039402211A
:103D900001F0A4FE0023191C1A1C00930193039345
:103DA000281C029401F0A8FE281C2649264A01F08E
:103DB000BFFE174CA6225200AA20A9184000221CC0
:103DC0002B183432281C01F0CFFE194D194E114F1B
:103DD0003B1CFC33DB6C082B38D1A6225200AA20F6
:103DE000B9184000221C3B183432381C01F0E4FFA3
:103DF000FEF71CFBEBE7C046F91201007F12010041
:103E000083120100503C01003512010038120100FC
:103E10000C0E0020B00C0020011301002F12010035
:103E20000A130100141301001D13010026130100E1
:103E30002F13010033130100381301000613010092
:103E40003C1301000000204100007A45291C09A80C
:103E500006F0EEFD311C0CA806F0EAFD12ACEE49AE
:103E60000FA806F0E5FD15AD201CEC4906F0E0FDBD
:103E700018AE281CEA4906F0DBFDEA49301C06F0C2
:103E8000D7FDE9491BA806F0D3FD1BA90CAA0FAB6F
:103E9000009401950391381C09A9029601F0F8FDE0
:103EA0001BA806F07EFD301C06F07BFD281C06F0EA
:103EB00078FD201C06F075FD0FA806F072FD0CA819
:103EC00006F06FFD09A806F06CFD072405231A1CF7
:103ED0000093019302940394381C022101F0FEFD2B
:103EE0000023191C1A1C0093019303930294381C9D
:103EF00001F002FE381CCD49CD4A01F019FEA62280
:103F0000CC4C5200AA25B9186D00221C38327B19FE
:103F1000381C01F029FEC84D2B1CFC33DB6C092B2F
:103F20000DD1A62040002918AA20221C40002B18E1
:103F30003832281C01F040FFFEF778FAEBE7BF4962
:103F400009A806F075FDBE490CA806F071FD12AC7B
:103F5000B1490FA806F06CFD201CB04906F068FDC1
:103F600018AEAF4915A806F063FD1BAF301CAD4974
:103F700006F05EFDAC49381C06F05AFD15A90CAAE6
:103F80000FAB281C00940191029609A9039701F038
:103F90007FFD381C06F005FD301C06F002FD15A85B
:103FA00006F0FFFC201C06F0FCFC0FA806F0F9FC54
:103FB0000CA806F0F6FC09A806F0F3FC072405237C
:103FC000281C1A1C0093019302940394022101F00F
:103FD00085FD0023191C1A1C009301930393281CD0
:103FE000029401F089FD281C9049914A01F0A0FD3E
:103FF000904CA6225200AA20A9184000221C2B187F
:104000003C32281C01F0B0FD8C4D8D4E8A4F3B1C7C
:10401000FC33DB6C0A2B0DD1A6225200AA20B91862
:104020004000221C3B183C32381C01F0C5FEFEF754
:10403000FDF9EBE7291C09A806F0FAFC311C0CA8D5
:1040400006F0F6FC12AC74490FA806F0F1FC15ADB1
:10405000201C724906F0ECFC18AE281C704906F0D2
:10406000E7FC7049301C06F0E3FC6F491BA806F022
:10407000DFFC1BA90CAA0FAB009401950391381C1F
:1040800009A9029601F004FD1BA806F08AFC301C69
:1040900006F087FC281C06F084FC201C06F081FC3E
:1040A0000FA806F07EFC0CA806F07BFC09A806F021
:1040B00078FC072405231A1C0093019302940394AF
:1040C000381C022101F00AFD0023191C1A1C009360
:1040D000019303930294381C01F00EFD381C5349E0
:1040E000534A01F025FD534CA6225200AA25B918C7
:1040F0006D00221C7B194032381C01F035FD251C57
:104100004D4C231CFC33DB6C0B2B0DD1A620400047
:104110002118AA202A1C400023184032201C01F03C
:104120004BFEFEF783F9EBE7464909A806F080FC51
:1041300045490CA806F07CFC44490FA806F078FC21
:10414000434E15AD311C12A806F072FC311C281C20
:1041500018AE06F06DFC1BAF3249301C06F068FC4F
:104160003149381C06F064FC12A90CAA0FAB00916F
:10417000019509A9201C0296039701F089FC381CBF
:1041800006F00FFC301C06F00CFC281C06F009FCA5
:1041900012A806F006FC0FA806F003FC0CA806F017
:1041A00000FC09A8002506F0FCFB07230422291CBB
:1041B0000095019502930393201C131C01F08EFCC3
:1041C0000123291C2A1C00950195029303952B1CA1
:1041D000201C01F091FC174DA823AA205B00400091
:1041E000291CE21854312318201C01F0BDFC124C8C
:1041F000231CFC33DB6C0C2B2CD1A823AA20291CFC
:104200005B004000E21854312318201C01F0D4FD5B
:10421000FEF70CF9EBE7C046381301000613010066
:104220003C1301003512010038120100000020414A
:1042300000007A450C0E0020B00C00202F13010066
:104240003313010040130100461301005013010015
:10425000503C0100BD4909A806F0EAFBBC490CA886
:1042600006F0E6FBBB490FA806F0E2FBBA4D15AF1E
:10427000291C12A806F0DCFB291C381C18AD1BAE4B
:1042800006F0D6FB281CB54906F0D2FBB449301C19
:1042900006F0CEFB12A90CAA0FAB0091019709A959
:1042A0000295201C039601F0F3FB301C06F079FB0D
:1042B000281C06F076FB381C06F073FB12A806F0EB
:1042C00070FB0FA806F06DFB0CA806F06AFB09A8AE
:1042D00006F067FB0027072202920392201C0621AA
:1042E0003B1C0097019701F0F9FB01230E2202937A
:1042F000201C3B1C391C00970197039701F0FCFB25
:10430000281C924906F094FB9649301C06F090FB5D
:10431000291C321C201C01F01AFC301C06F041FB49
:10432000281C06F03EFBA622A8238F4D52005B00FE
:10433000A118E2182B1C4833201C01F015FC8B4EF1
:10434000331CFC33DB6C0D2B0DD1A624A82064009C
:1043500040002B1C321831194833301C01F02CFD61
:10436000FEF764F8EBE7824909A806F061FB814992
:104370000CA806F05DFB12AC7F490FA806F058FBB5
:1043800015AD201C7D4906F053FB281C724906F030
:104390004FFB1BAF714918A806F04AFB7049381C47
:1043A00006F046FB18A90CAA0FAB009401950291E8
:1043B000301C09A9039701F06BFB381C06F0F1FAD9
:1043C00018A806F0EEFA281C06F0EBFA201C06F0FE
:1043D000E8FA0FA806F0E5FA0CA806F0E2FA09A838
:1043E00006F0DFFA002405230722009301940292CD
:1043F0000392301C221C022101F070FB0123211CBE
:10440000221C0094019402930394231C301C01F09D
:1044100073FB301C00215A4A01F08AFB524CA62241
:104420005200AA25B1186D00221C73194C32301CA1
:1044300001F09AFB251C4D4C231CFC33DB6C0E2B2E
:104440000DD1A62040002118AA202A1C40002318C4
:104450004C32201C01F0B0FCFDF7E8FFEBE74949C6
:1044600009A806F0E5FA48490CA806F0E1FA474920
:104470000FA806F0DDFA384E15AD311C12A806F073
:10448000D7FA311C281C18AE06F0D2FA1BAF3349FC
:10449000301C06F0CDFA3249381C06F0C9FA12A9D0
:1044A0000CAA0FAB0091019509A9201C0296039755
:1044B00001F0EEFA381C06F074FA301C06F071FABE
:1044C000281C06F06EFA12A806F06BFA0FA806F088
:1044D00068FA0CA806F065FA09A8002506F061FA4A
:1044E00007230422291C0095019502930393201CA5
:1044F000131C01F0F3FA0123291C2A1C00950195D5
:10450000029303952B1C201C01F0F6FA164DA823EC
:10451000AA205B004000291CE21874312318201CDB
:1045200001F022FB114E331CFC33DB6C0F2B2FD11F
:10453000A823AA24291C5B006400F21874313319E3
:10454000301C01F039FCFDF771FFEBE75A13010055
:10455000621301006A130100503C01003512010092
:1045600038120100711301000C0E0020B00C002065
:104570007A130100831301008D13010091130100D0
:104580000000F04214120100941301009E13010078
:10459000F34909A806F04CFAF2490CA806F048FACB
:1045A00012ACF1490FA806F043FA15AD201CEF49F3
:1045B00006F03EFAED49281C06F03AFA1BAFEC492A
:1045C00018A806F035FAEB49381C06F031FA18A89D
:1045D00009A90CAA0FAB009402900195301C039717
:1045E00001F056FA381C06F0DCF918A806F0D9F9E3
:1045F000281C06F0D6F9201C06F0D3F90FA806F007
:10460000D0F90CA806F0CDF909A8002406F0C9F9E4
:104610000723301C211C221C009401940293039355
:10462000231C01F05BFA0123301C211C221C009486
:10463000019402930394231C01F05EFAAA24A6229B
:10464000A82352005B006400B118301CF218331923
:1046500001F08AFAC54EC84C231CFC33DB6C102BCE
:104660000ED1A6256D006119A820AA2540006D0075
:1046700022186319201C01F09FFBFDF7D7FEEAE723
:10468000BE4909A806F0D4F9311C0CA806F0D0F9EF
:10469000311C0FA806F0CCF915AD311C12A806F09C
:1046A000C7F9311C281C18AE06F0C2F91BAFB0497F
:1046B000301C06F0BDF9B249381C06F0B9F912A851
:1046C00009A90CAA0FAB00900195201C0296039734
:1046D00001F0DEF9381C06F064F9301C06F061F9CF
:1046E000281C06F05EF912A806F05BF90FA806F088
:1046F00058F90CA806F055F909A8002506F051F95B
:104700000723291C2A1C0095019502930393201C62
:104710002B1C01F0E3F90123291C2A1C00950195AB
:10472000029303952B1C201C01F0E6F9AA25A62272
:10473000A82352005B006D00A118201CE218631929
:1047400001F012FA8C4E331CFC33DB6C112B0ED1B2
:10475000A620A823AA2440005B0064003118F218A8
:10476000301C331901F028FBFDF760FEEAE78549AC
:1047700009A806F05DF97D4D0CA8291C06F058F932
:1047800012AC291C0FA806F053F9201C291C06F0B6
:104790004FF9291C15A806F04BF91BAF744918A84E
:1047A00006F046F97649381C06F042F915A818A912
:1047B0000CAA0FAB009401900291301C09A9039739
:1047C00001F066F9381C06F0ECF818A806F0E9F8D4
:1047D00015A806F0E6F8201C06F0E3F80FA806F08E
:1047E000E0F80CA806F0DDF809A8002406F0D9F8D6
:1047F0000723301C211C221C009401940293039374
:10480000231C01F06BF90123301C211C009401943E
:10481000029303940522062301F06EF9AA24A6222E
:10482000A82352005B006400B118301CF218331941
:1048300001F09AF92E1C504C231CFC33DB6C122B1C
:104840000ED1A6256D006119A820AA2540006D0093
:1048500022186319201C01F0AFFAFDF7E7FDEAE723
:10486000494909A806F0E4F8311C0CA806F0E0F864
:10487000311C0FA806F0DCF815AD311C12A806F0AB
:10488000D7F8311C281C18AE06F0D2F81BAF3849F7
:10489000301C06F0CDF83A49381C06F0C9F812A8C9
:1048A00009A90CAA0FAB00900195201C0296039752
:1048B00001F0EEF8381C06F074F8301C06F071F8C0
:1048C000281C06F06EF812A806F06BF80FA806F088
:1048D00068F80CA806F065F809A8002506F061F84C
:1048E0000723291C2A1C0095019502930393201C81
:1048F0002B1C01F0F3F80123291C2A1C00950195BB
:10490000029303952B1C201C01F0F6F8AA25A62281
:10491000A82352005B006D00A118201CE218631947
:1049200001F022F91448031CFC33DB6C132B31D14A
:10493000A622A823AA2452005B0064008118C21892
:10494000031901F039FAFDF771FDEBE738680F4BF9
:104950000F4A186011683068FEF7A0FBFEF7C6FD2D
:10496000E1120100EB120100F3120100503C0100C2
:104970003512010038120100B00C0020A413010010
:10498000AB130100AF130100B613010000150020A6
:10499000980E00201FB0F0BDF8B5704C704A00268C
:1049A000231C2670666008330C3223CA23C303CA53
:1049B00003C3FE239B05E36163626A4B0127A36285
:1049C000E362694B694A2363694B2262A363694BC3
:1049D000694AE363694B201C2364231C48331F701E
:1049E000674B6849E364231C50331E70231C51330A
:1049F0001E7002236365231C58335C301E70626393
:104A0000676406F015F8201C5F49683006F010F85E
:104A10005E495F4A201C67670AF012FA5D4D281C48
:104A2000FDF7F8FB5C495A4A281C0AF009FA5B4D6D
:104A3000281CFDF76FFC5A49554A281C0AF000FA59
:104A4000584801F097FC584D0020FA21A8608900D1
:104A5000281CC822E9609200311C10302F710AF026
:104A600073FACC229200AE54FA20504D8000E860D8
:104A7000C822281C311C0023920010302F71AB601B
:104A80000AF062FACC2189006E54494D0022AA60D6
:104A9000281CFA23C822311C9B00920010302F7171
:104AA000EB600AF051FACC2080002E54414DFC23DB
:104AB000281C311C9B05282210302E606F602F733C
:104AC0006F73AB600AF040FA2B1C40331E707B42C0
:104AD000AB65FA23BB40EB65FA232B666B66364B5E
:104AE000254AEB662B67AB67344B6A67344AEB6742
:104AF0002B1DDA6721492B1C0833AE63EE636F650B
:104B0000DE67A966132388352B600821042307225A
:104B10002C4802F003FA2C4D281C00F075FC281CD0
:104B20002A491B4A0AF08CF9294D331C321C281CD7
:104B3000284900F0A9FC2849154A281C0AF080F9E8
:104B4000264D281C00F0F6FA281C2549104A0AF0C8
:104B500077F96268234B1A60F8BDC0460C0E00203E
:104B6000640E0100000080BF000020C10000204151
:104B70000000AF430000C8420000FA430000484272
:104B80000000F041840E01009F130100E1210000AC
:104B900000000020B00C0020A32100001014002011
:104BA00015210000A40B00203C0500200402002079
:104BB000700800209C0E00200000964300007A43FD
:104BC000000016432C130020080E00200B54000098
:104BD000880E0020280F0020B55400000415002086
:104BE0002951000028130020F0B585B00392C26B54
:104BF0001F1C061C01919B1A312B00D89DE0836F6E
:104C0000406F191C029307F0FDFF0AF01DF84D4B91
:104C10004B4A08F04FFD041C03980D1C0AF014F8D1
:104C2000021C0B1C201C291C09F0AEF9041C029864
:104C30000D1C0AF009F8021C0B1C201C291C08F092
:104C40001DFA09F05BFF716C02903065019807F066
:104C5000D9FF041C706D08F065F9011C201C07F0D9
:104C60001DFB351C403500281CD001232B70381C3F
:104C700008F0B4F9041CB06C08F0B0F9011C201C59
:104C800007F0C0FFFC21890507F092FEF46EF06486
:104C9000211C07F0F9FA002800D0F464019AB764E7
:104CA000726407E0201C002107F0DAFA002801D026
:104CB000019B73642B78002B1CD0331C88331B683A
:104CC000B068019309F0C0FF1F4A204B08F0D6F9E5
:104CD000041CF06C0D1C09F0B7FF021C0B1C201CFF
:104CE000291C09F051F907F0FBFA0299021C0198FE
:104CF00005F072FCF26BB81A08F070F9F16C07F06D
:104D0000CDFA002804D0331C002240331A70F76318
:104D1000336D092B01DC0A233365B06D08F002F90D
:104D2000011C039807F0A6FA002806D0331C88332C
:104D30001868316DF26D05F04FFC05B0F0BDC0464E
:104D40000000000000002440000000000000E03FE0
:104D5000F0B5C56B8DB05D1B071C0C1C05920B9349
:104D60000295312D00D85EE1081C796C07F04AFFEE
:104D7000051C786D08F0D6F8011C281C07F08EFA87
:104D8000002800D1A7E0BB6B0133052B00DD052314
:104D9000BE6EBB630196FE6E7C64311C019807F009
:104DA00031FF049009F050FFA24BA14A08F082FCA9
:104DB000041C05980D1C09F047FF021C0B1C201C4D
:104DC000291C09F0E1F8041C301C0D1C09F03CFF03
:104DD000021C0B1C201C291C08F050F909F086FF4E
:104DE000F86409F031FF3D6F06900791281C0A9581
:104DF00009F02AFF904A914B0890099108F05AFC5B
:104E0000041C0D1C221C069807992B1C07F00CFA99
:104E100000280FD1884A894B0898099909F0B4F8FD
:104E2000041C0D1C221C069807992B1C07F0E8F99E
:104E3000002805D0201C291C09F058FFF86401E067
:104E40000A9DFD64F86C311C07F01EFA002800D0A2
:104E5000FE64F86C019907F003FA002801D0019D67
:104E6000FD64FC6CBD6F3C67291C786F07F0CAFEBF
:104E7000049907F0B9FB311C0190201C07F0C2FE19
:104E8000011C019807F094FD291C07F049FA08F06D
:104E900029F8142639687A68331C4B435643DB19CA
:104EA000BE199C463865019600236646F518EE69E2
:104EB0002E62019EF518EE69043B2E621D1C14350E
:104EC000F3D1142359435A4379180C61BC1808F0E4
:104ED00029F8206106E0281C002107F0C1F900280C
:104EE00000D07C640598002107F0C4F9002801D0A7
:104EF000FE6E3E67BE6B3A68331E042B00DD042352
:104F000005246243D31804339B00D859019209F059
:104F10009BFE4B4A4B4B09F037F809F0EFFD3B1C69
:104F20000833D867002E31DD029D85422ED37A6882
:104F3000013E5443A419803304341B68A400E05993
:104F4000029307F0B5F90490B86809F07DFE3E4A77
:104F50003E4B08F093F8019B041C9E190436B600E2
:104F6000F0590D1C09F070FE0B1C021C291C201CA2
:104F700009F00AF807F0B4F90499021C029805F048
:104F80002BFBBB6B0B9D013BFD63BB63B86D07F057
:104F9000C9FF061C311C059807F06CF9002842D0A7
:104FA000FD6F301C019509F04FFE3B1D041C0D1CCC
:104FB000D86F019907F026FE09F046FE244A254BDA
:104FC00002900391201C291C09F06EFA221C2B1C54
:104FD00009F06AFA021C0B1C0298039908F06AFB9C
:104FE000041C0D1C0598311C07F00CFE09F02CFE6A
:104FF000021C0B1C201C291C08F0C6FF041C019875
:105000000D1C09F021FE021C0B1C201C291C08F0A1
:1050100035F809F073FD3B1C8833011C3866FA6DC6
:10502000186805F0D9FA0DB0F0BDC046C046C046BC
:105030000000000000001440666666666666E63F93
:10504000666666666666F63F000000000000E03FA8
:105050000000000000002040883001607047000020
:10506000F8B5041C081C0E1C04F0AAFDA26800235D
:105070002360191C9A4204D0FA225200904243DD68
:1050800004E0F423FF33984202DCA16000203DE0FD
:10509000FA235B00984239D0E3681D4D0133E36089
:1050A0001C49281C04F05CFFE168281C0A2204F05B
:1050B000D0FF281C184904F053FF301C04F080FD79
:1050C000071C012004F0FAFB2368626801332360A7
:1050D000934206D3281C114904F068FF0220A06007
:1050E00014E0FA235B009F42E7DC0D49281C04F022
:1050F0005DFF0C49281C04F033FF2168281C0A229C
:1051000004F0BFFF012001E09042BED1F8BDC046CF
:10511000501A0020BD130100C6130100E612010061
:10512000D1130100D713010010B5041C00F06DF974
:10513000201C10BD10B5041C00F066F90B23A36001
:105140000A23E360062323610C2363618023236029
:1051500094235B00201C636010BD10B5C0680C1C5C
:10516000002100F053F9201C00F058F910BD10B5D3
:10517000C0680C1C012100F049F9201C00F04EF918
:1051800010BD10B50021041C806800F03FF9C82054
:1051900000F040F9A068012100F038F910BD38B5E1
:1051A00081613221051CFFF7D8FF0024AB69281C60
:1051B000195D0134FFF7DBFF1E2CF7D138BD70B548
:1051C000041C0E1C00F03CF9051E48D1201CA661F1
:1051D000FFF7D7FF201C0121FFF7BFFF201C27216D
:1051E000FFF7C5FF201C0121FFF7C1FF201C291C70
:1051F000FFF7BDFF201C0C21FFF7AFFF201CD721BC
:10520000FFF7B5FF201CD621FFF7B1FF201C9D2121
:10521000FFF7ADFF201C2C21FFF79FFF201CA821CA
:10522000FFF7A5FF201C3A21FFF797FF201C1A214A
:10523000FFF79DFF201C3B21FFF78FFF201C08215B
:10524000FFF795FF201C1121FFF787FF201C03218A
:10525000FFF78DFFA169201CFFF7A1FF01E00125E9
:105260006D42281C70BD10B52221041CFFF775FF8C
:10527000201CC421FFF77BFF201C2021FFF76DFFBE
:10528000201CFF21FFF769FF10BDF8B50F1C041C9F
:10529000FF104421161C1D1CFFF75FFFF9B2201CF4
:1052A000FFF765FFE910201CC9B2FFF760FF201C63
:1052B0004521FFF752FFF1B2201C3612FFF757FFCE
:1052C000F1B2201CFFF753FF069B201CD9B2FFF759
:1052D0004EFF069B201C1D12E9B2FFF748FFF8BDE8
:1052E00070B50E1C041CF6104E21151CFFF735FF7F
:1052F000F1B2201CFFF73BFF201C4F21FFF72DFFD1
:10530000E9B2201C2D12FFF732FFE9B2201CFFF793
:105310002EFF70BDF0B587B00F1C0293041C0C99D2
:105320000D9B002F4BD0002A49DB002947DB029858
:10533000002844DB002B42DBF820151C014005400F
:105340002268039169184E1E914200D3561E02999D
:105350006268CB18581E0490934201D3013A04921C
:105360000499331C0091201C291C029AFFF78DFF21
:10537000291C751B029A201C0135FFF7B1FFEE179F
:10538000201C2421FFF7E9FE760F039A7519ED1012
:10539000D2100595039200260499029A8B1AB34203
:1053A0000DDB0025059B9D4205DA795D201CFFF78A
:1053B000DEFE0135F6E7039801363F18ECE707B04B
:1053C000F0BD73B542680368013A0E1C0021013B31
:1053D00000920A1C041CFFF758FF00210A1C201C25
:1053E000FFF77EFF201C2421FFF7B7FE002522686F
:1053F000D308626853439D4205D2201C311CFFF73D
:10540000B6FE0135F3E773BD7047704708B504F089
:10541000A3FC08BD08B504F051FA08BD10B5002181
:10542000041C062004F098FC211C044802F012FF22
:105430000620012104F090FC10BDC0462C1800206D
:1054400037B50620012104F02DFC0B20012104F0CA
:1054500029FC0A20012104F025FC0C20002104F085
:1054600021FC00246B46064D5C711C71281C05490B
:10547000019A02F0C1FE281C02F096FE201C3EBDDF
:105480002C180020001BB70010B500240160C46078
:10549000111C540709D0064C0831224004D50824B9
:1054A000013A644222430132891A4160836010BD8F
:1054B000070000807047000030B5002932DB4468E7
:1054C000A1422FDA002A2DDB8568AA422ADA62433C
:1054D00004688A181448002B12D0D3175B0F9A184F
:1054E000D210A418014004D5082301395B421943A6
:1054F000013180230B41191C23781943217011E0DD
:10550000D3175B0F9A18D210A218014004D50823B4
:1055100001395B421943013180230B41191C137877
:105520008B43137030BDC04607000080F8B5061CE1
:105530000F1C002573689D420DDA0024B3689C425D
:1055400007DA221C301C291C3B1CFFF7B5FF013475
:10555000F4E70135EEE7F8BD006870474068704732
:105560000B1C4A0709D0064A0833114004D508220B
:1055700001395242114301315B1A43607047C04602
:10558000070000808068704781607047C160704785
:1055900038B50C1CC16800290BD1002C37DB4168E1
:1055A0008C4234DA002A32DB8568211CAA422EDACA
:1055B0002BE001290BD1002C29DB81688C4226DAF3
:1055C000002A24DB41688A4221DA891A1CE0022978
:1055D0000CD1002C1BDB41688C4218DA002A16DB48
:1055E0008568AA4213DA091BAA1A0EE003290ED114
:1055F000002C0CDB81688C4209DA002A07DB456845
:10560000AA4204DA0C1B111C221CFFF755FF38BDFF
:10561000F0B585B00A9D019102920390EC88AA88AA
:10562000203B63430724D1082240541EA2418C181A
:105630005C432A68029F1419029ABB1AEA889342B3
:1056400020DA019E019BAA88F11A0723914213DAFE
:105650001940227880230B4100911A4205D003980B
:10566000311C3A1C0B9BFFF793FF009B0136073B55
:105670005A425341E418E5E713405A1E9341E41897
:105680000137D9E705B0F0BDF7B5061C0D1C171C96
:105690001C1C2378002B0DD0089A291C0092099A13
:1056A000301C01923A1CFFF7B3FF089A013493882B
:1056B000ED18EEE7F7BDF0B51F1C5B1A87B00D1CA7
:1056C000D917141C0590EA175818FB0F4840BD4223
:1056D0005A41009001230C9852421A430292021B35
:1056E000D017111841400C98019149420491C20F02
:1056F000E11784424A41524213430099019A0393AD
:105700008E1ABD4218D00C9A944215D005980D9B64
:10571000291C221CFFF73CFF04987300834203DB23
:105720000199029A761AAD18009873008342E8DC5A
:10573000039936186418E4E707B0F0BDF7B50D1CFF
:105740000190171C1E1C0C1CAB199C4207DA211C73
:1057500001983A1C089BFFF71BFF0134F4E7F7BDE3
:10576000F7B50F1C0190151C1E1C141CAB199C4294
:1057700007DA221C0198391C089BFFF709FF013446
:10578000F4E7F7BDF0B585B003900D1C141C1E1E88
:105790008E4201DC0E1C1D1C0A9BA34201DC0A94F4
:1057A0001C1C0B9B771B013700930398291C221CA0
:1057B0003B1CFFF7C3FF0B9B03980093291C0A9A1D
:1057C0003B1CFFF7BBFF0A9B03981F1B0B9B01377A
:1057D0000093291C221C3B1CFFF7C2FF0B9B039864
:1057E0000093311C221C3B1CFFF7BAFF05B0F0BD33
:1057F000F7B51D1C041C101C0E1C07F093FB291C84
:1058000007F0D6F809F020FA2E4B2D4A07F052FF88
:1058100009F074F92379051C2060002B02D1231CA8
:10582000012209E000232371E21816610433C82223
:1058300092009342F8D140E00433AA4203DA196996
:105840000132D960F8E7A7681F49381C06F068FDE7
:10585000011C301C06F018FDEA1C0192002809D139
:105860001949381C07F0CEF9011C301C06F0F8FC71
:10587000002803D001998B001F5102E0019A930088
:105880001E5100260027AE4208DAB300E318381C88
:10589000196906F045FD0136071CF4E7281C07F0DE
:1058A00041FB011C381C06F09FFE061CC72D04DCC2
:1058B000AB00E3181E610135F8E7301CA660FEBDA1
:1058C0000000000000408F400000F041C046C0468C
:1058D000F7B51D1C041C101C0E1C07F023FB291C13
:1058E00007F066F809F0B0F92E4B2D4A07F0E2FEFA
:1058F00009F004F92379051C2060002B02D1231C38
:10590000012209E000232371E21816610433C82242
:1059100092009342F8D140E00433AA4203DA1969B5
:105920000132D960F8E7A7681F49381C06F0F8FC77
:10593000011C301C06F0A8FCEA1C0192002809D1C9
:105940001949381C07F05EF9011C301C06F088FC70
:10595000002803D001998B001F5102E0019A9300A7
:105960001E5100260027AE4208DAB300E318381CA7
:10597000196906F0D5FC0136071CF4E7281C07F06E
:10598000D1FA011C381C06F02FFE061CC72D04DCC2
:10599000AB00E3181E610135F8E7301CA660FEBDC0
:1059A0000000000000408F400000F041C046C046AB
:1059B000F7B51D1C041C101C0E1C07F0B3FA291CA3
:1059C00006F0F6FF09F040F92E4B2D4A07F072FE63
:1059D00009F094F82379051C2060002B02D1231CC8
:1059E000012209E000232371E21816610433C82262
:1059F00092009342F8D140E00433AA4203DA1969D5
:105A00000132D960F8E7A7681F49381C06F088FC06
:105A1000011C301C06F038FCEA1C0192002809D158
:105A20001949381C07F0EEF8011C301C06F018FC70
:105A3000002803D001998B001F5102E0019A9300C6
:105A40001E5100260027AE4208DAB300E318381CC6
:105A5000196906F065FC0136071CF4E7281C07F0FD
:105A600061FA011C381C06F0BFFD061CC72D04DCC2
:105A7000AB00E3181E610135F8E7301CA660FEBDDF
:105A80000000000000408F400000F041C046C046CA
:105A900070B5041C1430161C1D1C04F0DCFF201C07
:105AA000311C203004F0D7FF201C291C2C3004F0BE
:105AB000D2FF201C0499383004F0CDFF201C05993A
:105AC000443004F0C8FF201C0699503004F0C3FF96
:105AD000201C07995C3004F0BEFF70BD0267009A7D
:105AE0004367019B8267029AC367031DC166DA6739
:105AF000039B0830C367704710B5041C8C342160C9
:105B0000011C90310A60021C94321360029A031C3B
:105B100098331A60039AA4305A60049A9A60059BDD
:105B2000036010BD031CA833AC30196002607047DD
:105B300070B5041C061C081C151C07F0D3F9C836E8
:105B40003060281C07F0CEF9CC34206070BD38B529
:105B50000D1C041C111CE83004F07DFF201C291CC6
:105B6000F43004F078FF38BDF0B595B00792089393
:105B7000021C031C1432041C6833061C04916C3490
:105B800005920693171C2268012A35D186490BA875
:105B900004F04EFF0BA9381C05F06DF8391C431CAE
:105BA00000220EA805F06CF811A80EA904F063FFFE
:105BB000049B1868002806DB08F0D4FF794B784A6C
:105BC00007F05CFA05E008F0CDFF764B744A08F068
:105BD0006BFC08F093FF011C11A804F0BCFF011C32
:105BE000381C04F038FF11A804F0DBFE0EA804F006
:105BF000D8FE0BA804F0D5FE2268022A3BD16A49E0
:105C00000BA804F015FF0BA9381C05F034F8391C5B
:105C1000431C00220EA805F033F80EA911A804F0C9
:105C20002AFF079B00211D68281C06F037FB00286F
:105C300007D0281C09F008F85A4B594A07F01EFAF9
:105C400006E0281C09F000F8564B554A08F02CFCD9
:105C500008F054FF011C11A804F07DFF011C381C42
:105C600004F0F9FE11A804F09CFE0EA804F099FEC1
:105C70000BA804F096FE2268062A2FD14B4D11A8DE
:105C8000291C04F0D5FE11A9381C04F0CFFF0390A5
:105C900011A804F086FE089A1378039A002A14D0FB
:105CA00011A8311C002B01D0F43100E0E83104F0E0
:105CB000E2FE291C11A804F03BFF011C381C04F073
:105CC000CAFE11A804F06DFE08E0381C311C002B40
:105CD00001D0F43100E0E83104F0BDFE2368042B6C
:105CE00056D10022059D0392039AB318DB6E042B54
:105CF00028D12E4911A804F09BFE11A9281C04F0FC
:105D00008AFF099011A804F04CFE099B002B19D0C2
:105D1000281C04F0FBFF264911A804F089FE01228B
:105D20000EA8291CFCF767FA0EA911A804F0F2FED0
:105D3000011C281C04F08FFE0EA804F032FE11A8EE
:105D400004F02FFE039A0C35043203921C2ACBD1A7
:105D5000049B0C251B68181C013068430830301860
:105D600004F0D4FF114911A804F062FE049A11A8AE
:105D70001268131C01335D4308357519291C04F0A2
:105D8000C9FE011C281C04F066FE11A804F009FEDF
:105D9000069B0C3704349F4200D0F4E615B0F0BDEA
:105DA000000000000000E03FF43D01001B12010074
:105DB000503C0100C046C046F0B599B00B92426815
:105DC00008900A910D93002A03D103F071FD089BFE
:105DD000586003F06DFD089AFA235268A04C801AAF
:105DE0005B00984208D9E56903F062FD291C021C9A
:105DF000201CFFF735F92062236A626993420FD0B5
:105E0000236AA269934200D044E22269089B089F5A
:105E100014332262002209936C371E1C0C927CE022
:105E20002369089D2362143501268E4915A804F0C4
:105E3000FFFD281C15A904F0F9FE071C15A804F0A5
:105E4000B0FD002F05D0A968281C013904F058FFC7
:105E500003E001360C35082EE7D10136072E00DDB0
:105E60000126331C1A33089A9B009B58022BF4D945
:105E70000C204643089B301C083018182A2104F0D7
:105E80002EFE002508997848143149190C3504F084
:105E900083F8542DF6D1B3E73B68032B4CD03A6816
:105EA000052A00D1E8E03A68062A00D18FE13A6875
:105EB000042A20D1099C0025089A5319DB6E042B73
:105EC00000D1BFE104350C341C2DF5D1301C04F099
:105ED0001DFF644915A804F0ABFD311C15A804F0A2
:105EE00019FE011C301C04F0B6FD15A804F059FD84
:105EF0000C9A0A9B1A603A68072A06D1089A00236E
:105F00005360131C3A6AFC33DA640C9B0C36013381
:105F10000C930437072B00D1BCE1524915A804F0BB
:105F200087FD301C15A904F081FE041C15A804F09F
:105F300038FD002CE9D0AFE74C4915A804F078FDF6
:105F4000301C15A904F067FE041C15A804F029FDF7
:105F5000002C18D0311C012215A8FCF74CF915A80B
:105F600004F0FEFE0A9B0A9A1B681818106015A818
:105F700004F017FD089B0A9AAC331B6812689A421A
:105F800001DD0A9A13603A4915A804F051FD301C4E
:105F900015A904F040FE041C15A804F002FD002C15
:105FA00018D0311C012215A8FCF725F915A804F01A
:105FB000D7FE0A9B0A9A1B68181A106015A804F0ED
:105FC000F0FC089B0A9AA8331B6812689A4201DA0F
:105FD0000A9A1360099C0025089A5319DB6E012B5D
:105FE00035D124490FA804F023FD0FA9201C04F08B
:105FF00042FE211C431C002212A804F041FE15A8F9
:1060000012A904F038FD0A9B1868002806DB08F086
:10601000A9FD124B104A07F031F805E008F0A2FD87
:106020000E4B0D4A08F040FA08F068FD011C15A857
:1060300004F091FD011C201C04F00DFD15A804F0D6
:10604000B0FC12A804F0ADFC0FA804F0AAFC0435C3
:106050000C341C2DC0D122E7000000000000E03FFE
:10606000400000201B120100501A0020393E0100A0
:106070008F3D0100F43D0100894915A804F0D8FCCA
:10608000301C15A904F0C7FD041C15A804F089FCF8
:10609000002C22D00122311C15A8FCF7ACF815A861
:1060A00004F05EFE06F03EFF0B9B011C186806F034
:1060B00037F90B9A106015A804F073FC089BCC33D9
:1060C000186806F02FFF0B9B041C211C186806F0B3
:1060D000DBF8002801D00B9A1460724915A804F06F
:1060E000A7FC301C15A904F096FD041C15A804F0AB
:1060F00058FC002C22D00122311C15A8FCF77BF89B
:1061000015A804F02DFE06F00DFF0B9B011C18686E
:1061100006F078FD0B9A106015A804F042FC089B6D
:10612000C833186806F0FEFE0B9B041C211C18687F
:1061300006F096F8002801D00B9A1460099D0024FF
:10614000089A1319DB6E022B3CD157490FA804F0B3
:106150006FFC0FA9281C04F08EFD291C431C002293
:1061600012A804F08DFD12A915A804F084FC0B9B65
:1061700000211B68181C079306F090F8002807D030
:10618000079808F061FD454B434A06F077FF06E0AB
:10619000079808F059FD414B3F4A08F085F908F08F
:1061A000ADFC011C15A804F0D6FC011C281C04F051
:1061B00052FC15A804F0F5FB12A804F0F2FB0FA89E
:1061C00004F0EFFB04340C351C2CB9D16BE6089AB3
:1061D00015A8E832111C079204F04DFC334C15A8A9
:1061E000211C04F0A5FC011C301C04F0DCFC051C87
:1061F00015A804F0D6FB15A8002D12D00899F4318B
:1062000004F039FC211C15A804F092FC011C301C80
:1062100004F021FC15A804F0C4FB0D9A01231370AF
:1062200045E6079904F027FC211C15A804F080FC22
:10623000011C301C04F00FFC15A804F0B2FB0D9BF0
:106240001D7034E6194915A804F0F2FB15A9201CAD
:1062500004F0E1FC079015A804F0A3FB079B002BBA
:1062600000D12FE615A8124904F0E2FB012212A882
:10627000211CFBF7C0FF12A915A804F04BFC011C60
:10628000201C04F0E8FB12A804F08BFB15A804F016
:1062900088FB17E619B0F0BD000000000000E03FE9
:1062A000393E01008F3D0100F43D01001B12010049
:1062B000503C0100C046C04670B5204C0022204929
:1062C000231C22706260083361C961C321C921C3E4
:1062D000FE239B05E36163621A4B0125A362E3621F
:1062E000194B1A4923631A4B201C6363194B216213
:1062F000A363194B1949E363194B5C302364231CD6
:1063000048331D70174B6564E364231C50331A70C7
:10631000231C51331A7002236365231C58331A70EF
:1063200004F086FB201C1049683004F081FB201C1F
:106330000E490F4A656708F083FD70BD24150020E3
:10634000BC3A0100000080BF000020C100002041D5
:106350000000FA430000AF430000C842840E010071
:10636000000048420000F0419F130100E1210000BD
:106370000000002038B5104B021C03600D23037190
:10638000002300254363836344320123C56305640E
:10639000041C13705370291C7822483008F0D4FD77
:1063A000201C291C3C22C03008F0CEFD231CFC33ED
:1063B0001D705D60201C38BD002D3101F7B5204BEC
:1063C0000F1C0168061C994200D9191C6B46002558
:1063D0001C4C5D711D71019A201C01F00DFF30797C
:1063E000291C03F0B9FC391C201C01F033FF291CC7
:1063F000201C01F02FFF291C87B2201C01F02AFF6E
:106400003F02BFB207430121307903F0A5FCFC36FF
:10641000201C01F00DFF3378BDB2002B0ED00A4CCA
:106420000222291C201C03F010FE0849201C03F046
:1064300097FD201C291C0A2203F00BFE281CFEBD20
:10644000001BB7002C180020501A0020503C0100FF
:10645000F7B5194B0F1C0168061C994200D9191C8D
:106460006B46164C00255D711D71019A201C01F0D0
:10647000C3FE3079291C03F06FFC391C201C01F08D
:10648000E9FE291C201C01F0E5FE291C0702201C46
:1064900001F0E0FE291C0743201C01F0DBFE3F0257
:1064A0003D1C05430121307903F056FC201C01F00E
:1064B000BFFE281CFEBDC046001BB7002C180020E4
:1064C00073B5124B0168041C994200D9191C6B4624
:1064D00000250F4E5D711D71019A301C009101F075
:1064E0008BFE2079291C03F037FC301C1E2101F0A3
:1064F000B1FEAF231B02013BFDD10121207903F046
:106500002BFC034801F094FE73BDC046001BB7008E
:106510002C18002010B5A021041CFFF74FFFE080CD
:1065200010BD10B5A221041CFFF748FF208110BD4B
:1065300010B5A421041CFFF741FF608110BD10B508
:10654000A621041CFFF73AFFA08110BD10B5A821B9
:10655000041CFFF733FFE08110BD10B5AA21041C15
:10656000FFF72CFF208210BD10B5AC21041CFFF7F3
:1065700025FF608210BD10B5AE21041CFFF71EFF81
:10658000A08210BD10B5041CFFF7C4FF201CFFF74C
:10659000C8FF201CFFF7CCFF201CFFF7D0FF201CFA
:1065A000FFF7D4FF201CFFF7D8FF201CFFF7DCFF0C
:1065B000201CFFF7E0FF10BD10B5041C0171081C82
:1065C000012103F06FFB0121207903F0C5FB054891
:1065D00001F0EAFD201CFFF773FF201CFFF7D2FF3C
:1065E000012010BD2C180020F0B50139C9B285B0CA
:1065F000051C032906D8194B5B5C49000193184B15
:10660000CF5E02E04823174F01932968164B994249
:1066100000D9191C0026154C6A4656731673039A46
:10662000201C029101F0E8FD2879311C03F094FB55
:106630000199201C01F00EFE2879012103F08CFB4A
:10664000201C01F0F5FDB74206D03020784303212D
:1066500005F006FD0138FDD105B0F0BDAC3C0100F0
:10666000B03C01001C200000001BB7002C180020CB
:10667000F0B50139C9B285B0051C042906D8194BFB
:106680005B5C49000193184BCF5E02E05223174F29
:1066900001932968164B994200D9191C0026154C04
:1066A0006A4656731673039A201C029101F0A4FDEA
:1066B0002879311C03F050FB0199201C01F0CAFD20
:1066C0002879012103F048FB201C01F0B1FDB742FD
:1066D00006D030207843032105F0C2FC0138FDD1FB
:1066E00005B0F0BD9C3C0100A23C01002404000068
:1066F000001BB7002C18002010B50021041CFFF768
:10670000A7FEA06110BD10B50021041CFFF7A0FE7C
:10671000E06110BD0000000070B5061CC06908F003
:106720005FFA041C308A0D1C08F01CFA074B064A5D
:1067300007F02AFC021C0B1C201C291C07F0B4FECD
:1067400008F0D4FA306270BD000000000000704014
:1067500010B5041C408A06F0E5FB216A06F028F912
:1067600008F072FA074B064A07F00EFC064A074B80
:1067700006F084FC08F0BAFA606210BDC046C0465C
:10678000000000000000803E0000000000409F402C
:1067900070B5061C408908F0E5F9104B0E4A07F069
:1067A000F3FB041CF0890D1C06F0BCFB316A06F0FB
:1067B000FFF808F049FA0A4A0A4B07F0E5FB021C09
:1067C0000B1C201C291C06F059FC08F08FFAB06243
:1067D00070BDC046C046C046000000000000F0404A
:1067E000000000000000803F70B5061C008908F022
:1067F000B9F9104B0E4A07F0C7FB041CB0890D1CF9
:1068000006F090FB316A06F0D3F808F01DFA0A4A48
:106810000A4B07F0B9FB021C0B1C201C291C06F0BC
:106820002DFC08F063FAF06270BDC046C046C04659
:10683000000000000000E040000000000000703F89
:1068400070B5061C806906F0C9FBF16A06F0B0F865
:1068500008F0FAF90D4B0C4A07F096FB041CB06ADD
:106860000D1C08F0F1F9021C0B1C201C291C07F060
:106870001BFE074A074B07F087FB08F037FA306327
:1068800070BDC046C046C046000000000000A03EEB
:10689000000000000000003F03681F4A73B5041C9D
:1068A0000E1C934200D9131C1C4D191C00226B4670
:1068B0005A711A71019A281C01F09EFCF1B2201C39
:1068C000FFF7D6FE201CFFF71EFF281C01F0B0FCCE
:1068D000201CFFF721FF201CFFF73AFF606A08F039
:1068E000B3F9084B064A06F0E5FE074A074B07F0E6
:1068F0004BFB074A074B06F0C1FB08F0F7F976BDE2
:106900000000000000005940CDCCCCCCCCCCFC3FEA
:106910000000000000004040001BB7002C180020C1
:106920000368144A73B5041C0E1C934200D9131C4F
:10693000114D191C00226B465A711A71019A281CBC
:1069400001F05AFCF1B2201CFFF74EFE201CFFF7AD
:10695000D3FE281C01F06CFC201CFFF7DDFE201C80
:10696000FFF716FF201CFFF73FFF201CFFF768FF13
:10697000206B76BD001BB7002C1800200000000023
:10698000F8B529480E1C111C05F02EFE08F05CF924
:10699000184B174A01F098FD041C301C0D1C08F020
:1069A00053F9154A154B07F07FFD154A154B07F0B3
:1069B000EBFA154A154B06F07DFE154A154B06F00D
:1069C0005DFB154A154B07F0DFFA154A154B061CFF
:1069D0000F1C201C291C07F067FD021C0B1C301C1F
:1069E000391C07F0D1FA08F081F9F8BDC046C0465D
:1069F0008F37F92D3A59C83F000000000000404091
:106A000000000000000014400000000000002240D0
:106A1000666666666612714052B81E85EB8B7F40D3
:106A2000000000000000F03F00A4C447C046C0467C
:106A3000F0B51F1C85B0031C0091019244331A78F5
:106A4000061C002A06D000221A7041630199C16316
:106A500000205EE01E2F03DC002F02DC012700E097
:106A60001E27331C01220433BA4203DA996C013227
:106A70005964F8E73B1C11339B00716B009802933B
:106A800006F0C0F808F0E0F8244B234A07F07CFA3F
:106A9000041C01980D1C06F0A1FA0390F06B06F09F
:106AA0009DFA011C039806F0ADF808F0CDF8021C21
:106AB0000B1C201C291C06F0FDFD194C194D08F07B
:106AC00015F9029A009B0199905100227363F163BA
:106AD000009200998B00F318986C08F0B5F8021C2E
:106AE0000B1C201C291C06F0C9FA009A041C013258
:106AF0000D1C0092BA42ECDB381C06F013FA08F0C9
:106B0000A3F8021C0B1C201C291C06F0D3FD08F066
:106B1000EDF805B0F0BDC0460000000000408F4019
:106B20000000000000000000FA2292008260044A87
:106B30000023026001224360027443747047C04620
:106B4000C03C0100F7B51D1C08AB1B78061C0F1CD0
:106B5000009201930024002D22D03368301C9B68E2
:106B60009847002814D03368301CDB689847C0B2BF
:106B70000D28F2D00A2804D1002CEED0019B002B66
:106B800020D03855009B0134A4B29C42E5D319E0D3
:106B9000013DADB2002DDED0012002F08FFEDAE71C
:106BA0003D55737C002B0FD0002C0DD0074D391CA8
:106BB000281C03F0D5F9009B9C4205D2281C03F049
:106BC000D9F901E00025C6E7201CFEBD501A0020BF
:106BD00010B5437C94B0041C002B15D01149124809
:106BE00003F0B2F910E003A8104908F06FFA00288A
:106BF00015D003A80E4908F069FA002810D0201C0F
:106C0000123003A908F06CFA002200922389201C9C
:106C100003A94022FFF796FF0028E4D100E00120FD
:106C200014B010BDE03C0100501A0020EA0F010032
:106C3000E53C010037B5041C0025123403894022CD
:106C40000095211CFFF77EFF2A1CA84204D0201CBF
:106C5000291C09F07FF9021C101C3EBDF8B5041C6C
:106C60000E1C551E6B1C1FD0236837781A683721FD
:106C70003B09092B00D83021C918201C90472368F4
:106C80000F221B6817403721092F00D83021C9195E
:106C9000201C9847002D04D02368201C1B682D2140
:106CA00098470136013DDDE704204042F8BD000071
:106CB000F7B5089D041C0F1C009201930026009953
:106CC000F3B28B4261D2002B03D1201C3D2103F093
:106CD0004BF901997300CA5AFF23111C99430B1CED
:106CE0008021C9008B4231D010D8802189008B428D
:106CF00026D0C022920093422ED08022520093428E
:106D000038D1201C296803F02BF933E0C022D200CF
:106D1000934227D006D8A022D20093422AD1002243
:106D2000A95E23E0E022D20093421DD0802212010E
:106D300093421FD12978201C0A2203F09EF919E002
:106D4000D2B2201C2968FFF789FF13E0201C2968B4
:106D50000A2203F088F90DE0201C29680A2203F0BA
:106D600056F907E0298801E000216956201C0A2213
:106D700003F06BF9009B013B9E4203D0201C2C21A9
:106D800003F0F2F80136043599E7201C03F0F2F81D
:106D9000002F0AD0637C002B03D00648064903F07D
:106DA000D3F8201CFFF746FF3860201CFFF710FFC8
:106DB000FEBDC046501A0020E03C0100F0B585B091
:106DC0000393057C041C0F1C161C002D03D10368C3
:106DD00001219B699847391C201C03F0B5F80B9BD7
:106DE000311C0093201C039A0A9BFFF761FF061CCD
:106DF000002D04D12368201C9B69291C9847301C56
:106E000005B0F0BD07B50023009301931A1CFFF7EE
:106E1000D5FF0EBD10B5041CFFF786FE064B201CE7
:106E20002360FA23A36000236365A365E3652366FB
:106E30006366A36610BDC046003D0100F8B5041CA2
:106E40000E1C0525184F201C391CFFF7DBFF0028FE
:106E50001BD1013DEDB2002DF4D1322002F02EFD08
:106E6000236801219B69201C9847322002F026FDEF
:106E70000525201C391CFFF7C5FF002805D1013D61
:106E8000EDB2002DF5D1281C0DE002F011FD60657A
:106E9000002E03D0FA20800002F010FD2368201C91
:106EA0005B6998470120F8BD493D010070B5041C9D
:106EB0000E1C0B4903F066F8201CFFF789FE051C29
:106EC00002F0F6FC6065002E03D0FA20800002F08C
:106ED000F5FC2368201C5B699847281C70BDC046E0
:106EE0004D3D01000023012904D8037C8B4200D0D2
:106EF00001740123181C704708B5C43000F08CFBE6
:106F000008BD10B5041C02F0D3FC23686268C01AE7
:106F1000002390425B41D8B210BD0000F7B5041CBD
:106F20000F1C161C1D1CFFF775FF0F4B201C083390
:106F30002360211C0123009383314022C43000F0E0
:106F40005FFB231C533303221A70221C5F769E764C
:106F5000DD766F32FF23137053709370231C8233DE
:106F60000022201C1A70FEBD083E010013B5037CF0
:106F70000122D21A041C027469463122C434D31A85
:106F80000731201C0B7000F04CFB201C024906222C
:106F900000F06CFB13BDC046303E0100F7B5051C88
:106FA00001916F350023EB56061C0727002401339F
:106FB00003D1144801F04EF923E0002028560021A7
:106FC00002F0CAFE019B01217020B94019403056E1
:106FD00002F0C2FE00202856012102F0BDFE712001
:106FE00064003056E4B202F0E7FE002801D001232D
:106FF0001C43013FE1D200202856002102F0ACFEE4
:10700000201CFEBD2C18002070B5061C0C1C8D1811
:10701000AC4206D02178301CFFF7C0FF207001344D
:10702000F6E770BDF0B58BB01E1C10AB1B78041CCE
:107030000F1C00920193002B02D103685B699847F3
:1070400005AD1023E9782B703B12AB707F23321C07
:1070500099431A400B1C1343EB706F700023102EE2
:1070600002D1019A01231340E978DA017F230B4012
:107070001343EB70009B002B06D0002E04D006A813
:10708000191C321C07F057FF221C6F32009200239C
:10709000D356013304D1264B264806CB01F0ACF879
:1070A000271C6C3700203856002102F055FEA368DB
:1070B000019302F0FDFB019A039004922978201CB1
:1070C000FFF76CFFFE2804D103A8FFF71AFF002882
:1070D0001BD003A8FFF715FF01254540EDB2002D99
:1070E00005D06946F21C201C1531FFF78DFF0020EA
:1070F0003856012102F030FE009A0023D3560133A6
:1071000012D10C4801F094F80EE00020385601210D
:1071100002F022FEC8239B00013BFDD16C202056CB
:10712000002102F019FEC9E7281C0BB0F0BDC046D3
:107130009C1500202C18002007B50023009302495D
:107140001A1CFFF76FFF0EBDEFBE0000F8B54174CB
:10715000041C6D2020560021251C171C6C3502F0E4
:10716000A1FD00202856012102F09CFD0020285698
:10717000012102F0F1FD033500202856431C03D104
:10718000204801F011F811E0012102F08BFD0020F0
:107190002856002102F0E0FD71202056002102F067
:1071A00081FD70202056012102F07CFD201CFFF79C
:1071B000C3FF251C061C6E3500202856002815DB51
:1071C000012102F06FFD00202856012102F0C4FDCC
:1071D00000200021285602F0BFFD0A2002F06EFBBD
:1071E00000202856012102F0B7FD012602F060FBC5
:1071F0006065002F03D0FA20800002F05FFB301C96
:10720000F8BDC0462C180020F0B5826885B0560045
:10721000051C0C1C02F04CFB039602906D202856B6
:1072200002F0CAFD061E06D102A8FFF76AFE00287A
:10723000F4D0341C86E02B1C6F3301931B785BB2B7
:10724000013304D1414B424806CB00F0D5FF2E1C40
:107250006C3600203056002102F07EFDAF6802F04F
:1072600027FB0397029002A8FFF74BFE00281BD1D3
:10727000281CFF21FFF792FE2070FE2801D0FF2876
:107280000DD100203056012102F066FDC8239B007D
:10729000013BFDD16C202856002102F05DFD2378D2
:1072A0000233DBB2012BDED92378202B06D0802BD2
:1072B00004D002A8FFF725FE00283DD002A8FFF762
:1072C00020FE002811D1671CFF210322381C07F083
:1072D0003BFE281C391C0322FFF796FEA07861783C
:1072E00003F05CFB2378802B01D1002416E0194ABF
:1072F000801880B20228F8D8E2785206520E102A7E
:10730000F3DC271DFF21381C07F01EFEE278281C45
:107310005206520E391CFFF777FE0124002030562A
:10732000012102F019FD019A0023D356013309D13E
:10733000074800F07DFF05E0281CFF21FFF72EFE27
:107340002070B1E7201C05B0F0BDC0469C150020A0
:107350002C18002000F6FFFFF0B5071C87B03E1C7C
:10736000C4363389B288D31A9BB20F2B17D901AC1C
:1073700000211422201C07F0E7FD381C211CFFF718
:1073800043FF051E0CD0E2785206520E03D0301C8B
:1073900002A900F06BF9E378DB09E0D100E00125F8
:1073A000281C07B0F0BD0000F0B585B06E460F3662
:1073B0003170037C041C002B09D100932549321C39
:1073C0000123FFF72FFE201CFFF7C6FF3FE03278B6
:1073D000051C82350D2A01D00A2A1AD12E78002EDA
:1073E0002DD0271C7237381C1B49032207F094FD4F
:1073F000002803D1201CFFF7B9FD08E00023A021DD
:107400000093201C09013A1C331CFFF70BFE0023DC
:107410000EE02B78102B0DD1271C01227237A021F2
:10742000009209013A1CFFF7FDFD33783B70012300
:107430002B7004E0591CC318703329709A70637C58
:10744000002B04D06B46D97B044802F08DFD01204F
:1074500005B0F0BD010A0000373E0100501A0020BF
:10746000F0B5037C85B0041C0E1C171C002B02D049
:107470008D1800272EE0022A01D83D1C24E0081CAC
:1074800003221B4907F048FD0028F6D1032F04D042
:10749000F3780D2B01D00A2BEFD1201CFFF766FDEE
:1074A00022E00395102D01D910220392039B201C8A
:1074B000ED1A2A1C511E8A410092DBB2321C0D4982
:1074C000FFF7B0FD039AB618002DEAD1201CFFF794
:1074D00043FF09E0AE4207D0236831781B68201CC7
:1074E000984701363F18F5E7381C05B0F0BDC04697
:1074F000373E0100010A000037B5051CC4352B8951
:10750000041C002B0AD1037C002B0AD100930749ED
:107510001A1CFFF787FD201CFFF71EFF288980B289
:1075200003E06D20205602F047FC3EBD020A000039
:107530007FB5061CC43633896D46041C0F35002BFD
:1075400004D0301C291C00F0A9F817E0037C002BA4
:1075500005D100930C491A1CFFF764FD05E06D206E
:10756000205602F029FC002802D0201CFFF7F4FE70
:10757000301C291C00F092F8002801D0287801E086
:107580000120404204B070BD020A00007FB5061C15
:107590006D46C4360F35041C291C301C00F09AF8C7
:1075A000002818D1237C002B06D10093201C0D4904
:1075B0001A1CFFF737FD05E06D20205602F0FCFB9A
:1075C000002802D0201CFFF7C7FE301C291C00F049
:1075D00081F8002801D0287801E00120404204B061
:1075E00070BDC046020A0000034B044A1A60002224
:1075F0005A711A717047C0469C150020E093040030
:1076000010B502AC2478837100238381016043812B
:107610008280C471038110BD002303814381838173
:10762000704738B503898288041C9A4202D1C07918
:1076300000281AD0A279608923685043181807F0EF
:107640007AFC6089A5880130291C04F0ADFD89B25F
:1076500061812389AB4203D163899BB2A38103E09B
:10766000238901339BB22381012038BDF8B5061C64
:1076700000200D1C171C041C82420ED0301C291C3B
:10768000FFF7CFFF002801D1201C06E00134B379B9
:10769000A4B2ED18BC42F7D0F0E7F8BD10B5041C59
:1076A00022890023081C9A4212D0A279A18923685A
:1076B0005143591807F03FFCA089A188013004F01C
:1076C00073FD89B2A1812389013B9BB223810123F0
:1076D000181C10BD08B5031C081C19890022914212
:1076E00007D09A7999891B685143591807F023FCF0
:1076F0000122101C08BD13B502686B46D97107330F
:107700005468191C0122A04716BD38B5041C006A34
:107710000025A84202D1012363600AE0456092B2CD
:1077200000F018FB236A5B68002B02D00123636022
:10773000281C38BD006A08B5002801D000F0CEFA38
:1077400008BD000013B56C460734211C012200F06F
:107750000DFA012801D1207800E0014800B216BDE1
:10776000FFFF0000006A08B5002802D0FFF7EAFF1B
:1077700001E00120404208BD38B5051C006A002820
:107780000AD0FFF7DFFF041C631C05D0286A0169DB
:10779000013900F071FA201C38BD0000FA22920075
:1077A0008260044A0023083243600260036203746B
:1077B0007047C046403E0100036A002B01D01869A3
:1077C00001E0012040427047006A002800D0C069F3
:1077D0007047000038B5041C006A00280BD0201C3C
:1077E000FFF7F2FF051C201CFFF7E6FF024B281AEB
:1077F000984200D9181C38BDFF7F0000084B0221B9
:107800001961191C002230310A7006495A719A71A7
:107810009A721A73DA63996341331A707047C046DB
:10782000A4150020683E010008B5011C014800F0C5
:1078300011FD08BD2C18002008B50248FF2100F0FA
:1078400009FD08BD2C18002008B50121007902F0BF
:1078500083FA054B1A78002A04D0002203481A70D4
:1078600000F0E6FC08BDC046101600202C180020D1
:1078700010B5084B041C1A78002A06D101221A7090
:10788000054B064806CB00F0B7FC2079002102F03A
:1078900063FA10BD10160020081600202C180020D6
:1078A00010B58379041C002B0DD023895A1C22812A
:1078B000054A934202D8FFF7BFFFF6E7201CFFF707
:1078C000C3FF0023A37110BD0102000038B50C1CDA
:1078D00001F0EEFF051CFFF7AFFFFF2806D001F017
:1078E000E7FF401BA042F6D3002000E0012038BD96
:1078F000F8B5041C0E1C171CFFF7D2FF201CFFF765
:10790000B7FF96214900201CFFF7E0FF40203043DD
:10791000FFF78AFF1825381CE840C0B2083DFFF782
:1079200083FF2B1C0833F6D19520002E03D087202F
:10793000082E00D0FF20FFF777FF0025FFF77CFF20
:1079400043B2E072002B04DAFF2D02D00135EDB214
:10795000F4E7F8BD38B5041C01F0AAFF051CFFF7D9
:107960006BFFE072FF2808D101F0A2FF9623401BB5
:107970005B009842F3D90F2302E0FE2806D00D23C6
:10798000201C6371FFF760FF002000E0012038BD7C
:10799000F8B5041C0F1C151C1E1E45D09A18802318
:1079A0009B009A4242DC8379002B05D00268914209
:1079B00002D10389AB4216D9237B2760032B00D069
:1079C0007F023A1C201C1121FFF792FF071E02D0F4
:1079D000032363712AE0201CFFF7BCFF002825D099
:1079E00001232781A3712389AB4205D2FFF724FF2E
:1079F000238901332381F6E7069D069AAB1A9BB2D1
:107A0000B34204D2FFF718FF28700135F5E7238948
:107A1000A27AF3189BB22381002A02D0064A93422D
:107A200002D9201CFFF73CFF012003E0201CFFF7D8
:107A30000BFF0020F8BDC046FF01000007B5802302
:107A400000929B000022FFF7A3FF0EBD70B5051C3E
:107A5000081C161CFFF7E8FE0024305DFFF7E4FE6B
:107A6000013480239B009C42F7D1FF20FFF7DCFE0E
:107A7000FF20FFF7D9FEFFF7DFFE1F23E872034068
:107A80000120052B05D01123281C6B71FFF7DCFEAC
:107A9000002070BD70B50B1C041C161C002901D100
:107AA000122328E0027B032A00D04B02201C18215D
:107AB0001A1CFFF71DFF051E01D004231BE0201C2C
:107AC000FE21321CFFF7C2FF002815D09621201C92
:107AD0008900FFF7FBFE002801D115230BE0201CD5
